{
  "_format": "hh-sol-artifact-1",
  "contractName": "PepeDoods",
  "sourceName": "contracts/PepeDoods.sol",
  "abi": [
    {
      "inputs": [
        {
          "internalType": "string",
          "name": "__tokenURI",
          "type": "string"
        }
      ],
      "stateMutability": "nonpayable",
      "type": "constructor"
    },
    {
      "anonymous": false,
      "inputs": [
        {
          "indexed": true,
          "internalType": "address",
          "name": "owner",
          "type": "address"
        },
        {
          "indexed": true,
          "internalType": "address",
          "name": "approved",
          "type": "address"
        },
        {
          "indexed": true,
          "internalType": "uint256",
          "name": "tokenId",
          "type": "uint256"
        }
      ],
      "name": "Approval",
      "type": "event"
    },
    {
      "anonymous": false,
      "inputs": [
        {
          "indexed": true,
          "internalType": "address",
          "name": "owner",
          "type": "address"
        },
        {
          "indexed": true,
          "internalType": "address",
          "name": "operator",
          "type": "address"
        },
        {
          "indexed": false,
          "internalType": "bool",
          "name": "approved",
          "type": "bool"
        }
      ],
      "name": "ApprovalForAll",
      "type": "event"
    },
    {
      "anonymous": false,
      "inputs": [
        {
          "indexed": true,
          "internalType": "address",
          "name": "previousOwner",
          "type": "address"
        },
        {
          "indexed": true,
          "internalType": "address",
          "name": "newOwner",
          "type": "address"
        }
      ],
      "name": "OwnershipTransferred",
      "type": "event"
    },
    {
      "anonymous": false,
      "inputs": [
        {
          "indexed": true,
          "internalType": "address",
          "name": "from",
          "type": "address"
        },
        {
          "indexed": true,
          "internalType": "address",
          "name": "to",
          "type": "address"
        },
        {
          "indexed": true,
          "internalType": "uint256",
          "name": "tokenId",
          "type": "uint256"
        }
      ],
      "name": "Transfer",
      "type": "event"
    },
    {
      "inputs": [],
      "name": "allowlist",
      "outputs": [
        {
          "internalType": "bytes32",
          "name": "",
          "type": "bytes32"
        }
      ],
      "stateMutability": "view",
      "type": "function"
    },
    {
      "inputs": [
        {
          "internalType": "address",
          "name": "to",
          "type": "address"
        },
        {
          "internalType": "uint256",
          "name": "tokenId",
          "type": "uint256"
        }
      ],
      "name": "approve",
      "outputs": [],
      "stateMutability": "nonpayable",
      "type": "function"
    },
    {
      "inputs": [
        {
          "internalType": "address",
          "name": "owner",
          "type": "address"
        }
      ],
      "name": "balanceOf",
      "outputs": [
        {
          "internalType": "uint256",
          "name": "",
          "type": "uint256"
        }
      ],
      "stateMutability": "view",
      "type": "function"
    },
    {
      "inputs": [
        {
          "internalType": "address",
          "name": "",
          "type": "address"
        }
      ],
      "name": "claimed",
      "outputs": [
        {
          "internalType": "uint256",
          "name": "",
          "type": "uint256"
        }
      ],
      "stateMutability": "view",
      "type": "function"
    },
    {
      "inputs": [
        {
          "internalType": "uint256",
          "name": "tokenId",
          "type": "uint256"
        }
      ],
      "name": "getApproved",
      "outputs": [
        {
          "internalType": "address",
          "name": "",
          "type": "address"
        }
      ],
      "stateMutability": "view",
      "type": "function"
    },
    {
      "inputs": [
        {
          "internalType": "bytes32[]",
          "name": "_proof",
          "type": "bytes32[]"
        },
        {
          "internalType": "address",
          "name": "_address",
          "type": "address"
        }
      ],
      "name": "isAllowed",
      "outputs": [
        {
          "internalType": "bool",
          "name": "",
          "type": "bool"
        }
      ],
      "stateMutability": "view",
      "type": "function"
    },
    {
      "inputs": [
        {
          "internalType": "address",
          "name": "owner",
          "type": "address"
        },
        {
          "internalType": "address",
          "name": "operator",
          "type": "address"
        }
      ],
      "name": "isApprovedForAll",
      "outputs": [
        {
          "internalType": "bool",
          "name": "",
          "type": "bool"
        }
      ],
      "stateMutability": "view",
      "type": "function"
    },
    {
      "inputs": [
        {
          "internalType": "uint256",
          "name": "amount",
          "type": "uint256"
        }
      ],
      "name": "mint",
      "outputs": [],
      "stateMutability": "payable",
      "type": "function"
    },
    {
      "inputs": [],
      "name": "name",
      "outputs": [
        {
          "internalType": "string",
          "name": "",
          "type": "string"
        }
      ],
      "stateMutability": "view",
      "type": "function"
    },
    {
      "inputs": [],
      "name": "nextOwnerToExplicitlySet",
      "outputs": [
        {
          "internalType": "uint256",
          "name": "",
          "type": "uint256"
        }
      ],
      "stateMutability": "view",
      "type": "function"
    },
    {
      "inputs": [],
      "name": "owner",
      "outputs": [
        {
          "internalType": "address",
          "name": "",
          "type": "address"
        }
      ],
      "stateMutability": "view",
      "type": "function"
    },
    {
      "inputs": [
        {
          "internalType": "uint256",
          "name": "tokenId",
          "type": "uint256"
        }
      ],
      "name": "ownerOf",
      "outputs": [
        {
          "internalType": "address",
          "name": "",
          "type": "address"
        }
      ],
      "stateMutability": "view",
      "type": "function"
    },
    {
      "inputs": [],
      "name": "price",
      "outputs": [
        {
          "internalType": "uint256",
          "name": "",
          "type": "uint256"
        }
      ],
      "stateMutability": "view",
      "type": "function"
    },
    {
      "inputs": [],
      "name": "receiver",
      "outputs": [
        {
          "internalType": "address payable",
          "name": "",
          "type": "address"
        }
      ],
      "stateMutability": "view",
      "type": "function"
    },
    {
      "inputs": [],
      "name": "renounceOwnership",
      "outputs": [],
      "stateMutability": "nonpayable",
      "type": "function"
    },
    {
      "inputs": [
        {
          "internalType": "address",
          "name": "from",
          "type": "address"
        },
        {
          "internalType": "address",
          "name": "to",
          "type": "address"
        },
        {
          "internalType": "uint256",
          "name": "tokenId",
          "type": "uint256"
        }
      ],
      "name": "safeTransferFrom",
      "outputs": [],
      "stateMutability": "nonpayable",
      "type": "function"
    },
    {
      "inputs": [
        {
          "internalType": "address",
          "name": "from",
          "type": "address"
        },
        {
          "internalType": "address",
          "name": "to",
          "type": "address"
        },
        {
          "internalType": "uint256",
          "name": "tokenId",
          "type": "uint256"
        },
        {
          "internalType": "bytes",
          "name": "_data",
          "type": "bytes"
        }
      ],
      "name": "safeTransferFrom",
      "outputs": [],
      "stateMutability": "nonpayable",
      "type": "function"
    },
    {
      "inputs": [
        {
          "internalType": "bytes32",
          "name": "root",
          "type": "bytes32"
        }
      ],
      "name": "setAllowlist",
      "outputs": [],
      "stateMutability": "nonpayable",
      "type": "function"
    },
    {
      "inputs": [
        {
          "internalType": "address",
          "name": "operator",
          "type": "address"
        },
        {
          "internalType": "bool",
          "name": "approved",
          "type": "bool"
        }
      ],
      "name": "setApprovalForAll",
      "outputs": [],
      "stateMutability": "nonpayable",
      "type": "function"
    },
    {
      "inputs": [
        {
          "internalType": "bytes4",
          "name": "interfaceId",
          "type": "bytes4"
        }
      ],
      "name": "supportsInterface",
      "outputs": [
        {
          "internalType": "bool",
          "name": "",
          "type": "bool"
        }
      ],
      "stateMutability": "view",
      "type": "function"
    },
    {
      "inputs": [],
      "name": "symbol",
      "outputs": [
        {
          "internalType": "string",
          "name": "",
          "type": "string"
        }
      ],
      "stateMutability": "view",
      "type": "function"
    },
    {
      "inputs": [
        {
          "internalType": "uint256",
          "name": "index",
          "type": "uint256"
        }
      ],
      "name": "tokenByIndex",
      "outputs": [
        {
          "internalType": "uint256",
          "name": "",
          "type": "uint256"
        }
      ],
      "stateMutability": "view",
      "type": "function"
    },
    {
      "inputs": [
        {
          "internalType": "address",
          "name": "owner",
          "type": "address"
        },
        {
          "internalType": "uint256",
          "name": "index",
          "type": "uint256"
        }
      ],
      "name": "tokenOfOwnerByIndex",
      "outputs": [
        {
          "internalType": "uint256",
          "name": "",
          "type": "uint256"
        }
      ],
      "stateMutability": "view",
      "type": "function"
    },
    {
      "inputs": [
        {
          "internalType": "uint256",
          "name": "_tokenId",
          "type": "uint256"
        }
      ],
      "name": "tokenURI",
      "outputs": [
        {
          "internalType": "string",
          "name": "",
          "type": "string"
        }
      ],
      "stateMutability": "view",
      "type": "function"
    },
    {
      "inputs": [],
      "name": "totalSupply",
      "outputs": [
        {
          "internalType": "uint256",
          "name": "",
          "type": "uint256"
        }
      ],
      "stateMutability": "view",
      "type": "function"
    },
    {
      "inputs": [
        {
          "internalType": "address",
          "name": "from",
          "type": "address"
        },
        {
          "internalType": "address",
          "name": "to",
          "type": "address"
        },
        {
          "internalType": "uint256",
          "name": "tokenId",
          "type": "uint256"
        }
      ],
      "name": "transferFrom",
      "outputs": [],
      "stateMutability": "nonpayable",
      "type": "function"
    },
    {
      "inputs": [
        {
          "internalType": "address",
          "name": "newOwner",
          "type": "address"
        }
      ],
      "name": "transferOwnership",
      "outputs": [],
      "stateMutability": "nonpayable",
      "type": "function"
    },
    {
      "inputs": [
        {
          "internalType": "uint256",
          "name": "amount",
          "type": "uint256"
        },
        {
          "internalType": "bytes32[]",
          "name": "_proof",
          "type": "bytes32[]"
        }
      ],
      "name": "whitelistMint",
      "outputs": [],
      "stateMutability": "payable",
      "type": "function"
    },
    {
      "inputs": [],
      "name": "wlPrice",
      "outputs": [
        {
          "internalType": "uint256",
          "name": "",
          "type": "uint256"
        }
      ],
      "stateMutability": "view",
      "type": "function"
    }
  ],
  "bytecode": "0x60a0604052600080556000600655668e1bc9bf040000600c5566470de4df820000600d553480156200003057600080fd5b5060405162002c3138038062002c31833981016040819052620000539162000265565b6040518060400160405280600981526020016850657065446f6f647360b81b815250604051806040016040528060048152602001635045504560e01b815250601460008111620000fc5760405162461bcd60e51b815260206004820152602a60248201527f4552433732314c6974653a206d61782062617463682073697a65206d757374206044820152696265206e6f6e7a65726f60b01b606482015260840160405180910390fd5b825162000111906001906020860190620001bf565b50815162000127906002906020850190620001bf565b5060805250620001399050336200016d565b6001600a5580516200015390600b906020840190620001bf565b5050600e80546001600160a01b0319163317905562000394565b600980546001600160a01b038381166001600160a01b0319831681179093556040519116919082907f8be0079c531659141344cd1fd0a4f28419497f9722a3daafe3b4186f6b6457e090600090a35050565b828054620001cd9062000341565b90600052602060002090601f016020900481019282620001f157600085556200023c565b82601f106200020c57805160ff19168380011785556200023c565b828001600101855582156200023c579182015b828111156200023c5782518255916020019190600101906200021f565b506200024a9291506200024e565b5090565b5b808211156200024a57600081556001016200024f565b600060208083850312156200027957600080fd5b82516001600160401b03808211156200029157600080fd5b818501915085601f830112620002a657600080fd5b815181811115620002bb57620002bb6200037e565b604051601f8201601f19908116603f01168101908382118183101715620002e657620002e66200037e565b816040528281528886848701011115620002ff57600080fd5b600093505b8284101562000323578484018601518185018701529285019262000304565b82841115620003355760008684830101525b98975050505050505050565b600181811c908216806200035657607f821691505b602082108114156200037857634e487b7160e01b600052602260045260246000fd5b50919050565b634e487b7160e01b600052604160045260246000fd5b608051612873620003be6000396000818161179b015281816117c50152611dfa01526128736000f3fe6080604052600436106101c25760003560e01c80638da5cb5b116100f7578063c87b56dd11610095578063d7224ba011610064578063d7224ba0146104ee578063e985e9c514610504578063f2fde38b1461055a578063f7260d3e1461057a57600080fd5b8063c87b56dd1461046e578063c884ef831461048e578063cf1c73b2146104bb578063d2cab056146104db57600080fd5b8063a0712d68116100d1578063a0712d6814610405578063a22cb46514610418578063b88d4fde14610438578063c7f8d01a1461045857600080fd5b80638da5cb5b146103af57806395d89b41146103da578063a035b1fe146103ef57600080fd5b80632f745c59116101645780636352211e1161013e5780636352211e1461033a57806370a082311461035a578063715018a61461037a5780637fac20941461038f57600080fd5b80632f745c59146102da57806342842e0e146102fa5780634f6ccce71461031a57600080fd5b8063095ea7b3116101a0578063095ea7b31461026357806318160ddd1461028557806323b872dd146102a45780632b47da52146102c457600080fd5b806301ffc9a7146101c757806306fdde03146101fc578063081812fc1461021e575b600080fd5b3480156101d357600080fd5b506101e76101e23660046123b3565b6105a7565b60405190151581526020015b60405180910390f35b34801561020857600080fd5b506102116106d8565b6040516101f39190612615565b34801561022a57600080fd5b5061023e61023936600461239a565b61076a565b60405173ffffffffffffffffffffffffffffffffffffffff90911681526020016101f3565b34801561026f57600080fd5b5061028361027e36600461231c565b610817565b005b34801561029157600080fd5b506000545b6040519081526020016101f3565b3480156102b057600080fd5b506102836102bf3660046121aa565b610971565b3480156102d057600080fd5b5061029660085481565b3480156102e657600080fd5b506102966102f536600461231c565b61097c565b34801561030657600080fd5b506102836103153660046121aa565b610b12565b34801561032657600080fd5b5061029661033536600461239a565b610b2d565b34801561034657600080fd5b5061023e61035536600461239a565b610ba9565b34801561036657600080fd5b5061029661037536600461215c565b610bb4565b34801561038657600080fd5b50610283610cac565b34801561039b57600080fd5b506101e76103aa366004612346565b610cc0565b3480156103bb57600080fd5b5060095473ffffffffffffffffffffffffffffffffffffffff1661023e565b3480156103e657600080fd5b50610211610d59565b3480156103fb57600080fd5b50610296600c5481565b61028361041336600461239a565b610d68565b34801561042457600080fd5b506102836104333660046122e0565b610ef4565b34801561044457600080fd5b506102836104533660046121e6565b610ff1565b34801561046457600080fd5b50610296600d5481565b34801561047a57600080fd5b5061021161048936600461239a565b611080565b34801561049a57600080fd5b506102966104a936600461215c565b60076020526000908152604090205481565b3480156104c757600080fd5b506102836104d636600461239a565b600855565b6102836104e93660046123ed565b6110b4565b3480156104fa57600080fd5b5061029660065481565b34801561051057600080fd5b506101e761051f366004612177565b73ffffffffffffffffffffffffffffffffffffffff918216600090815260056020908152604080832093909416825291909152205460ff1690565b34801561056657600080fd5b5061028361057536600461215c565b6112af565b34801561058657600080fd5b50600e5461023e9073ffffffffffffffffffffffffffffffffffffffff1681565b60007fffffffff0000000000000000000000000000000000000000000000000000000082167f80ac58cd00000000000000000000000000000000000000000000000000000000148061063a57507fffffffff0000000000000000000000000000000000000000000000000000000082167f5b5e139f00000000000000000000000000000000000000000000000000000000145b8061068657507fffffffff0000000000000000000000000000000000000000000000000000000082167f780e9d6300000000000000000000000000000000000000000000000000000000145b806106d257507f01ffc9a7000000000000000000000000000000000000000000000000000000007fffffffff000000000000000000000000000000000000000000000000000000008316145b92915050565b6060600180546106e7906126f5565b80601f0160208091040260200160405190810160405280929190818152602001828054610713906126f5565b80156107605780601f1061073557610100808354040283529160200191610760565b820191906000526020600020905b81548152906001019060200180831161074357829003601f168201915b5050505050905090565b6000610777826000541190565b6107ee5760405162461bcd60e51b815260206004820152603060248201527f4552433732314c6974653a20617070726f76656420717565727920666f72206e60448201527f6f6e6578697374656e7420746f6b656e0000000000000000000000000000000060648201526084015b60405180910390fd5b5060009081526004602052604090205473ffffffffffffffffffffffffffffffffffffffff1690565b600061082282610ba9565b90508073ffffffffffffffffffffffffffffffffffffffff168373ffffffffffffffffffffffffffffffffffffffff1614156108c65760405162461bcd60e51b815260206004820152602560248201527f4552433732314c6974653a20617070726f76616c20746f2063757272656e742060448201527f6f776e657200000000000000000000000000000000000000000000000000000060648201526084016107e5565b3373ffffffffffffffffffffffffffffffffffffffff821614806108ef57506108ef813361051f565b6109615760405162461bcd60e51b815260206004820152603c60248201527f4552433732314c6974653a20617070726f76652063616c6c6572206973206e6f60448201527f74206f776e6572206e6f7220617070726f76656420666f7220616c6c0000000060648201526084016107e5565b61096c838383611349565b505050565b61096c8383836113ca565b600061098783610bb4565b82106109fb5760405162461bcd60e51b815260206004820152602560248201527f4552433732314c6974653a206f776e657220696e646578206f7574206f66206260448201527f6f756e647300000000000000000000000000000000000000000000000000000060648201526084016107e5565b600080549080805b83811015610aa35760008181526003602052604090205473ffffffffffffffffffffffffffffffffffffffff168015610a3a578092505b8773ffffffffffffffffffffffffffffffffffffffff168373ffffffffffffffffffffffffffffffffffffffff161415610a905786841415610a82575093506106d292505050565b83610a8c81612749565b9450505b5080610a9b81612749565b915050610a03565b5060405162461bcd60e51b815260206004820152603160248201527f4552433732314c6974653a20756e61626c6520746f2067657420746f6b656e2060448201527f6f66206f776e657220627920696e64657800000000000000000000000000000060648201526084016107e5565b61096c83838360405180602001604052806000815250610ff1565b600080548210610ba55760405162461bcd60e51b815260206004820152602660248201527f4552433732314c6974653a20676c6f62616c20696e646578206f7574206f662060448201527f626f756e6473000000000000000000000000000000000000000000000000000060648201526084016107e5565b5090565b60006106d282611718565b600073ffffffffffffffffffffffffffffffffffffffff8216610c3f5760405162461bcd60e51b815260206004820152602e60248201527f4552433732314c6974653a2062616c616e636520717565727920666f7220746860448201527f65207a65726f206164647265737300000000000000000000000000000000000060648201526084016107e5565b6000805b600054811015610ca557610c5681611718565b73ffffffffffffffffffffffffffffffffffffffff168473ffffffffffffffffffffffffffffffffffffffff161415610c9557610c9282612749565b91505b610c9e81612749565b9050610c43565b5092915050565b610cb46118b6565b610cbe600061191d565b565b6040517fffffffffffffffffffffffffffffffffffffffff000000000000000000000000606083901b1660208201526000908190603401604051602081830303815290604052805190602001209050610d50858580806020026020016040519081016040528093929190818152602001838360200280828437600092019190915250506008549150849050611994565b95945050505050565b6060600280546106e7906126f5565b610d706119aa565b8060008111610dc15760405162461bcd60e51b815260206004820152601160248201527f616d6f756e7420746f6f206c6974746c6500000000000000000000000000000060448201526064016107e5565b61138881610dce60005490565b610dd89190612628565b1115610e265760405162461bcd60e51b815260206004820152601160248201527f657863656564206d617820737570706c7900000000000000000000000000000060448201526064016107e5565b610e3260146001612628565b8210610e805760405162461bcd60e51b815260206004820152601660248201527f616d6f756e742063616e2774206578636565642032300000000000000000000060448201526064016107e5565b81600c54610e8e9190612640565b3414610edc5760405162461bcd60e51b815260206004820152601160248201527f696e73756666696369656e742066756e6400000000000000000000000000000060448201526064016107e5565b610ee63383611a04565b50610ef16001600a55565b50565b73ffffffffffffffffffffffffffffffffffffffff8216331415610f5a5760405162461bcd60e51b815260206004820152601d60248201527f4552433732314c6974653a20617070726f766520746f2063616c6c657200000060448201526064016107e5565b33600081815260056020908152604080832073ffffffffffffffffffffffffffffffffffffffff87168085529083529281902080547fffffffffffffffffffffffffffffffffffffffffffffffffffffffffffffff001686151590811790915590519081529192917f17307eab39ab6107e8899845ad3d59bd9653f200f220920489ca2b5937696c31910160405180910390a35050565b610ffc8484846113ca565b61100884848484611a22565b61107a5760405162461bcd60e51b815260206004820152603660248201527f4552433732314c6974653a207472616e7366657220746f206e6f6e204552433760448201527f3231526563656976657220696d706c656d656e7465720000000000000000000060648201526084016107e5565b50505050565b6060600b61108d83611c08565b60405160200161109e92919061249f565b6040516020818303038152906040529050919050565b6110bc6119aa565b826000811161110d5760405162461bcd60e51b815260206004820152601160248201527f616d6f756e7420746f6f206c6974746c6500000000000000000000000000000060448201526064016107e5565b6113888161111a60005490565b6111249190612628565b11156111725760405162461bcd60e51b815260206004820152601160248201527f657863656564206d617820737570706c7900000000000000000000000000000060448201526064016107e5565b61117d838333610cc0565b6111c95760405162461bcd60e51b815260206004820152600b60248201527f6e6f7420616c6c6f77656400000000000000000000000000000000000000000060448201526064016107e5565b600384106112195760405162461bcd60e51b815260206004820152601560248201527f616d6f756e742063616e2774206578636565642032000000000000000000000060448201526064016107e5565b83600d546112279190612640565b34146112755760405162461bcd60e51b815260206004820152601160248201527f696e73756666696369656e742066756e6400000000000000000000000000000060448201526064016107e5565b3360009081526007602052604081208054869290611294908490612628565b909155506112a490503385611a04565b5061096c6001600a55565b6112b76118b6565b73ffffffffffffffffffffffffffffffffffffffff81166113405760405162461bcd60e51b815260206004820152602660248201527f4f776e61626c653a206e6577206f776e657220697320746865207a65726f206160448201527f646472657373000000000000000000000000000000000000000000000000000060648201526084016107e5565b610ef18161191d565b60008281526004602052604080822080547fffffffffffffffffffffffff00000000000000000000000000000000000000001673ffffffffffffffffffffffffffffffffffffffff87811691821790925591518593918516917f8c5be1e5ebec7d5bd14f71427d1e84f3dd0314c0f7b2291e5b200ac8c7c3b92591a4505050565b60006113d582611718565b905060003373ffffffffffffffffffffffffffffffffffffffff8316148061141a5750336114028461076a565b73ffffffffffffffffffffffffffffffffffffffff16145b8061142a575061142a823361051f565b90508061149f5760405162461bcd60e51b815260206004820152603560248201527f4552433732314c6974653a207472616e736665722063616c6c6572206973206e60448201527f6f74206f776e6572206e6f7220617070726f766564000000000000000000000060648201526084016107e5565b8473ffffffffffffffffffffffffffffffffffffffff168273ffffffffffffffffffffffffffffffffffffffff16146115405760405162461bcd60e51b815260206004820152602960248201527f4552433732314c6974653a207472616e736665722066726f6d20696e636f727260448201527f656374206f776e6572000000000000000000000000000000000000000000000060648201526084016107e5565b73ffffffffffffffffffffffffffffffffffffffff84166115c95760405162461bcd60e51b815260206004820152602860248201527f4552433732314c6974653a207472616e7366657220746f20746865207a65726f60448201527f206164647265737300000000000000000000000000000000000000000000000060648201526084016107e5565b6115d560008484611349565b600083815260036020526040812080547fffffffffffffffffffffffff00000000000000000000000000000000000000001673ffffffffffffffffffffffffffffffffffffffff871617905561162c846001612628565b60008181526003602052604090205490915073ffffffffffffffffffffffffffffffffffffffff166116b557611663816000541190565b156116b557600081815260036020526040902080547fffffffffffffffffffffffff00000000000000000000000000000000000000001673ffffffffffffffffffffffffffffffffffffffff85161790555b838573ffffffffffffffffffffffffffffffffffffffff168773ffffffffffffffffffffffffffffffffffffffff167fddf252ad1be2c89b69c2b068fc378daa952ba7f163c4a11628f55a4df523b3ef60405160405180910390a4505050505050565b6000611725826000541190565b6117975760405162461bcd60e51b815260206004820152602d60248201527f4552433732314c6974653a206f776e657220717565727920666f72206e6f6e6560448201527f78697374656e7420746f6b656e0000000000000000000000000000000000000060648201526084016107e5565b60007f000000000000000000000000000000000000000000000000000000000000000083106117f8576117ea7f00000000000000000000000000000000000000000000000000000000000000008461267d565b6117f5906001612628565b90505b825b8181106118475760008181526003602052604090205473ffffffffffffffffffffffffffffffffffffffff16801561183457949350505050565b508061183f816126c0565b9150506117fa565b5060405162461bcd60e51b815260206004820152603260248201527f4552433732314c6974653a20756e61626c6520746f2064657465726d696e652060448201527f746865206f776e6572206f6620746f6b656e000000000000000000000000000060648201526084016107e5565b60095473ffffffffffffffffffffffffffffffffffffffff163314610cbe5760405162461bcd60e51b815260206004820181905260248201527f4f776e61626c653a2063616c6c6572206973206e6f7420746865206f776e657260448201526064016107e5565b6009805473ffffffffffffffffffffffffffffffffffffffff8381167fffffffffffffffffffffffff0000000000000000000000000000000000000000831681179093556040519116919082907f8be0079c531659141344cd1fd0a4f28419497f9722a3daafe3b4186f6b6457e090600090a35050565b6000826119a18584611cd0565b14949350505050565b6002600a5414156119fd5760405162461bcd60e51b815260206004820152601f60248201527f5265656e7472616e637947756172643a207265656e7472616e742063616c6c0060448201526064016107e5565b6002600a55565b611a1e828260405180602001604052806000815250611d15565b5050565b600073ffffffffffffffffffffffffffffffffffffffff84163b15611bfc576040517f150b7a0200000000000000000000000000000000000000000000000000000000815273ffffffffffffffffffffffffffffffffffffffff85169063150b7a0290611a999033908990889088906004016125cc565b602060405180830381600087803b158015611ab357600080fd5b505af1925050508015611b01575060408051601f3d9081017fffffffffffffffffffffffffffffffffffffffffffffffffffffffffffffffe0168201909252611afe918101906123d0565b60015b611bb1573d808015611b2f576040519150601f19603f3d011682016040523d82523d6000602084013e611b34565b606091505b508051611ba95760405162461bcd60e51b815260206004820152603660248201527f4552433732314c6974653a207472616e7366657220746f206e6f6e204552433760448201527f3231526563656976657220696d706c656d656e7465720000000000000000000060648201526084016107e5565b805181602001fd5b7fffffffff00000000000000000000000000000000000000000000000000000000167f150b7a0200000000000000000000000000000000000000000000000000000000149050611c00565b5060015b949350505050565b60606000611c1583611fd3565b600101905060008167ffffffffffffffff811115611c3557611c356127e0565b6040519080825280601f01601f191660200182016040528015611c5f576020820181803683370190505b5090508181016020015b7fffffffffffffffffffffffffffffffffffffffffffffffffffffffffffffffff017f3031323334353637383961626364656600000000000000000000000000000000600a86061a8153600a8504945084611cc357611cc8565b611c69565b509392505050565b600081815b8451811015611cc857611d0182868381518110611cf457611cf46127b1565b60200260200101516120b5565b915080611d0d81612749565b915050611cd5565b60005473ffffffffffffffffffffffffffffffffffffffff8416611da05760405162461bcd60e51b8152602060048201526024808201527f4552433732314c6974653a206d696e7420746f20746865207a65726f2061646460448201527f726573730000000000000000000000000000000000000000000000000000000060648201526084016107e5565b611dab816000541190565b15611df85760405162461bcd60e51b815260206004820181905260248201527f4552433732314c6974653a20746f6b656e20616c7265616479206d696e74656460448201526064016107e5565b7f0000000000000000000000000000000000000000000000000000000000000000831115611e8e5760405162461bcd60e51b815260206004820152602560248201527f4552433732314c6974653a207175616e7469747920746f206d696e7420746f6f60448201527f206869676800000000000000000000000000000000000000000000000000000060648201526084016107e5565b600081815260036020526040812080547fffffffffffffffffffffffff00000000000000000000000000000000000000001673ffffffffffffffffffffffffffffffffffffffff871617905581905b84811015611fc957604051829073ffffffffffffffffffffffffffffffffffffffff8816906000907fddf252ad1be2c89b69c2b068fc378daa952ba7f163c4a11628f55a4df523b3ef908290a4611f376000878487611a22565b611fa95760405162461bcd60e51b815260206004820152603660248201527f4552433732314c6974653a207472616e7366657220746f206e6f6e204552433760448201527f3231526563656976657220696d706c656d656e7465720000000000000000000060648201526084016107e5565b81611fb381612749565b9250508080611fc190612749565b915050611edd565b5060005550505050565b6000807a184f03e93ff9f4daa797ed6e38ed64bf6a1f010000000000000000831061201c577a184f03e93ff9f4daa797ed6e38ed64bf6a1f010000000000000000830492506040015b6d04ee2d6d415b85acef81000000008310612048576d04ee2d6d415b85acef8100000000830492506020015b662386f26fc10000831061206657662386f26fc10000830492506010015b6305f5e100831061207e576305f5e100830492506008015b612710831061209257612710830492506004015b606483106120a4576064830492506002015b600a83106106d25760010192915050565b60008183106120d15760008281526020849052604090206120e0565b60008381526020839052604090205b9392505050565b803573ffffffffffffffffffffffffffffffffffffffff8116811461210b57600080fd5b919050565b60008083601f84011261212257600080fd5b50813567ffffffffffffffff81111561213a57600080fd5b6020830191508360208260051b850101111561215557600080fd5b9250929050565b60006020828403121561216e57600080fd5b6120e0826120e7565b6000806040838503121561218a57600080fd5b612193836120e7565b91506121a1602084016120e7565b90509250929050565b6000806000606084860312156121bf57600080fd5b6121c8846120e7565b92506121d6602085016120e7565b9150604084013590509250925092565b600080600080608085870312156121fc57600080fd5b612205856120e7565b9350612213602086016120e7565b925060408501359150606085013567ffffffffffffffff8082111561223757600080fd5b818701915087601f83011261224b57600080fd5b81358181111561225d5761225d6127e0565b604051601f82017fffffffffffffffffffffffffffffffffffffffffffffffffffffffffffffffe0908116603f011681019083821181831017156122a3576122a36127e0565b816040528281528a60208487010111156122bc57600080fd5b82602086016020830137600060208483010152809550505050505092959194509250565b600080604083850312156122f357600080fd5b6122fc836120e7565b91506020830135801515811461231157600080fd5b809150509250929050565b6000806040838503121561232f57600080fd5b612338836120e7565b946020939093013593505050565b60008060006040848603121561235b57600080fd5b833567ffffffffffffffff81111561237257600080fd5b61237e86828701612110565b90945092506123919050602085016120e7565b90509250925092565b6000602082840312156123ac57600080fd5b5035919050565b6000602082840312156123c557600080fd5b81356120e08161280f565b6000602082840312156123e257600080fd5b81516120e08161280f565b60008060006040848603121561240257600080fd5b83359250602084013567ffffffffffffffff81111561242057600080fd5b61242c86828701612110565b9497909650939450505050565b60008151808452612451816020860160208601612694565b601f017fffffffffffffffffffffffffffffffffffffffffffffffffffffffffffffffe0169290920160200192915050565b60008151612495818560208601612694565b9290920192915050565b600080845481600182811c9150808316806124bb57607f831692505b60208084108214156124f4577f4e487b710000000000000000000000000000000000000000000000000000000086526022600452602486fd5b818015612508576001811461253757612564565b7fffffffffffffffffffffffffffffffffffffffffffffffffffffffffffffff00861689528489019650612564565b60008b81526020902060005b8681101561255c5781548b820152908501908301612543565b505084890196505b505050505050610d506125a361259d837f2f00000000000000000000000000000000000000000000000000000000000000815260010190565b86612483565b7f2e6a736f6e000000000000000000000000000000000000000000000000000000815260050190565b600073ffffffffffffffffffffffffffffffffffffffff80871683528086166020840152508360408301526080606083015261260b6080830184612439565b9695505050505050565b6020815260006120e06020830184612439565b6000821982111561263b5761263b612782565b500190565b6000817fffffffffffffffffffffffffffffffffffffffffffffffffffffffffffffffff048311821515161561267857612678612782565b500290565b60008282101561268f5761268f612782565b500390565b60005b838110156126af578181015183820152602001612697565b8381111561107a5750506000910152565b6000816126cf576126cf612782565b507fffffffffffffffffffffffffffffffffffffffffffffffffffffffffffffffff0190565b600181811c9082168061270957607f821691505b60208210811415612743577f4e487b7100000000000000000000000000000000000000000000000000000000600052602260045260246000fd5b50919050565b60007fffffffffffffffffffffffffffffffffffffffffffffffffffffffffffffffff82141561277b5761277b612782565b5060010190565b7f4e487b7100000000000000000000000000000000000000000000000000000000600052601160045260246000fd5b7f4e487b7100000000000000000000000000000000000000000000000000000000600052603260045260246000fd5b7f4e487b7100000000000000000000000000000000000000000000000000000000600052604160045260246000fd5b7fffffffff0000000000000000000000000000000000000000000000000000000081168114610ef157600080fdfea2646970667358221220c2260d2cc44e65e4575231874a312138c37986cef94fdc2fc879b4db274996e264736f6c63430008070033",
  "linkReferences": {},
  "deployedLinkReferences": {}
}